:100000000A128A11FC2F00308A000408840A820731
:100010000034483445344C344C344F342C34203480
:1000200057344F3452344C3444340034413448341F
:100030004D34453444342C3420344F3441344D3421
:040040005234003402
:100C080000300A128A112B260A128A1101300A12A0
:100C18008A112B260A128A11080001300A128A1139
:100C28002B260A128A1108300A128A112B260A1258
:100C38008A11080001300A128A112B260A128A1119
:100C48000C300A128A112B260A128A110800F200A7
:100C580083120313861272080A128A1141260A1295
:100C68008A11831203130616A630F100F10B3A2EEF
:100C780000008312031306120800F000701C452EB2
:100C8800462E4A2E8312031306144D2E8312031385
:100C98000610F01C502E512E532E8614542E8610FA
:100CA800701D572E582E5A2E06155B2E0611F01D54
:100CB8005E2E5F2E612E8615622E86110800F700C3
:100CC800F501F6017A2E7508770784000A128A1151
:100CD80003200A128A110A128A1188260A128A1116
:100CE8000130F5070318F60A0030F607750877078C
:100CF80084000A128A1103200A128A11003A031D7D
:100D0800862E872E672E0800F40074080F39F1002C
:100D18007108F2007408F039F1007108F3008312C9
:100D2800031386167308F10004300310F10CFF3E1C
:100D3800031D992E71080A128A1141260A128A1176
:100D4800831203130616A630F100F10BA92E00003A
:100D5800831203130612A630F100F10BB12E000026
:100D680072080A128A1141260A128A118312031381
:100D78000616A630F100F10BBF2E000083120313F4
:100D88000612A630F100F10BC72E00000800F6008D
:100D98007603031DD02ED12EF32E73087F3EF40068
:100DA8007408F9007908F40004300310F40CFF3ECD
:100DB800031DD92E7408F5007508F80079080F3955
:100DC800F4007408F70078080A128A112B260A1210
:100DD8008A1177080A128A112B260A128A11023000
:100DE8007606031DF82EF92E1B2F7308BF3EF4005C
:100DF8007408F9007908F40004300310F40CFF3E7D
:100E0800031D012F7408F5007508F80079080F39DB
:100E1800F4007408F70078080A128A112B260A12BF
:100E28008A1177080A128A112B260A128A110800D9
:100E38008316031386018612061200300A128A11DD
:100E480041260A128A112730F400F530F300F30B1B
:100E58002B2FF40B2B2FA630F300F30B312F0000B0
:100E680003300A128A112B260A128A110730F4005D
:100E78007D30F300F30B3E2FF40B3E2F03300A12A4
:100E88008A112B260A128A113130F300F30B4A2FEC
:100E98004D2F03300A128A112B260A128A110230AA
:100EA8000A128A112B260A128A1102300A128A1192
:100EB8002B260A128A1108300A128A112B260A12C6
:100EC8008A1100300A128A112B260A128A110C3054
:100ED8000A128A112B260A128A1100300A128A1164
:100EE8002B260A128A1106300A128A112B260A1298
:100EF8008A1108000A128A111C270A128A110A127A
:100F08008A1104260A128A11F301F30A01300A121F
:100F18008A11CB260A128A1101300A128A11632615
:100F28000A128A11F301F30A02300A128A11CB2637
:100F38000A128A110E300A128A1163260A128A11BD
:100F480083120313A001A1010230FC008630FB00CC
:100F58009930FA00FA0BAE2FFB0BAE2FFC0BAE2F1D
:100F68000A128A111E260A128A11013083120313EB
:100F7800A0070318A10A0030A1072108803AFF0042
:100F880080307F02031DCA2F04302002031CCD2F9E
:100F9800CE2FA82F83120313A201A3010230FC0055
:100FA8008630FB009930FA00FA0BD82FFB0BD82FAC
:100FB800FC0BD82F0A128A1111260A128A11013045
:100FC80083120313A2070318A30A0030A3072308F8
:100FD800803AFF0080307F02031DF42F0430220284
:100FE800031CF72FF82FD22FA42F0A128A110028DA
:080FF80083010A128A117E2F09
:08400000FF3FFF3FFF3FFF3FC0
:02400E00713F00
:00000001FF
