:060000000A128A110C280F
:10000800FE00030EF1000A08F2000A128A111428F1
:100018000A128A110F28F40183010A128A1156283C
:10002800831203138C1D19281A28352883160313E5
:1000380014191F28202832288312031313081416B2
:1000480083160313141C29282A282428831203132F
:100058001308F0007008F400740888008312141262
:100068008C1172088A00710E8300FE0E7E0E090044
:10007800F30073088316031393008030940036301E
:10008800831203139400013083160313910087151C
:1000980007168B170B17831203138C118316031380
:1000A8008C15080083160313880183120313880133
:1000B80040300A128A113C200A128A1162280A1258
:0400C8008A110C2865
:08400000FF3FFF3FFF3FFF3FC0
:02400E00713F00
:00000001FF
