:060000000A128A110C280F
:10000800FE00030EF1000A08F2000A128A115228B3
:100018000A128A110F28F80183010A128A1114287A
:100028000A128A1163200A128A11F701073083160F
:10003800031386008801831203138801061C2528F0
:10004800262838280130F4007408F7070230F60033
:100058004530F500A930F400F40B3028F50B3028B2
:10006800F60B302837284A28861C3B283C283F288E
:100078000130F7022A28061D422843284A28770813
:100088000A128A1172200A128A112A287708831202
:100098000313880022280A128A110C2883120313DA
:1000A8008C1E572858285C281A08F0007008F80099
:1000B80072088A00710E8300FE0E7E0E09008316F8
:1000C800031318151930990018128312031398177F
:1000D800831603130717871798160800F30083166B
:1000E8000313981C7828792873287308831203133C
:0400F8009900080063
:08400000FF3FFF3FFF3FFF3FC0
:02400E00713F00
:00000001FF
