:060000000A128A11EE2F26
:100F1E00FC346034DA34F2346634B634BE34E03441
:100F2E00FF34F6347E088A007F0882000A128A1186
:100F3E0099270A128A118000840A04087D06031973
:100F4E000034FF0A0319FE0A9D2F203084002B3037
:100F5E00F0000408F1000A30F200700884008313D8
:100F6E000008F300F00A7108840073088000F10A8B
:100F7E00F20BB42F83120313AA01831603138601F7
:100F8E00831203138601831203132A08203E840062
:100F9E008313000886000130F0007008AA070A309B
:100FAE002A06031DDB2FDC2FDD2FAA010630F200EF
:100FBE001330F100AD30F000F00BE32FF10BE32F07
:100FCE00F20BE32FEA2FCA2F0A128A11002883137D
:100FDE003530FD000730FE008F30FF002B308400CF
:100FEE000A128A119D270A128A1183010A128A1186
:020FFE00AC2F16
:08400000FF3FFF3FFF3FFF3FC0
:02400E00713F00
:00000001FF
