:060000000A128A11FC2F18
:100ED8000A128A1195270A128A118316031311140C
:100EE80008000A128A1195270A128A118316031319
:100EF800111508000A128A1195270A128A118316F9
:100F08000313911611160800283083120313940056
:100F1800831603139101940109309300871507166E
:100F280008008316031314199A2F9B2F952F110865
:100F38001F39031DA02FA12F952F0800F0000A12BA
:100F48008A1195270A128A117008831203139300D5
:100F58000A128A1195270A128A1108000A128A11A0
:100F680095270A128A118316031391150A128A11FA
:100F780095270A128A11831203131308F0007008C8
:100F8800F1000A128A117E270A128A1171080800D4
:100F98008316031388018312031388010A128A1126
:100FA80088270A128A110A128A116C270A128A11D2
:100FB80041300A128A11A2270A128A110A128A11CA
:100FC800B2270A128A118312031388000A128A119F
:100FD80075270A128A118230F300DD30F200F20B15
:100FE800F32FF30BF32FF82FD72F0A128A110028AB
:080FF80083010A128A11CC2FBB
:08400000FF3FFF3FFF3FFF3FC0
:02400E00713F00
:00000001FF
