:060000000A128A11FC2F18
:100F04000A128A11A1270A128A11831603131114D3
:100F140008000A128A11A1270A128A1183160313E0
:100F24001115080028308312031394008316031349
:100F34009101940109309300871507160800831660
:100F440003131419A62FA72FA12F11081F39031D4E
:100F5400AC2FAD2FA12F0800F0000A128A11A1278F
:100F64000A128A1170088312031393000A128A1159
:100F7400A1270A128A110800FF3083160313860082
:100F84008801831203138801F401F40A0A128A11F6
:100F940094270A128A110A128A1182270A128A11C4
:100FA40040300A128A11AE270A128A1174080A12F2
:100FB4008A11AE270A128A110130F1007108F40770
:100FC4000A128A118B270A128A110330F3008A301D
:100FD400F2005530F100F10BED2FF20BED2FF30B76
:100FE400ED2FF42F0830831203138806CD2F0A1235
:0C0FF4008A11002883010A128A11BE2F06
:08400000FF3FFF3FFF3FFF3FC0
:02400E00713F00
:00000001FF
