:060000000A128A110C280F
:10000800FE00030EF0000A08F1000A128A111428F3
:100018000A128A110F28F30183010A128A1155283E
:10002800831203138C1D19281A28342883160313E6
:10003800141D1F2820283028941A23282428302803
:100048008312031313080608930014168316031368
:10005800141C2F2830282A288312031314128C11F9
:1000680071088A00700E8300FE0E7E0E0900F200F1
:10007800720883160313930080309400363083127D
:100088000313940001308316031391008715071694
:100098008B170B17831203138C11831603138C15FC
:1000A8000800FF30831603138800811340300A12BA
:1000B8008A113B200A128A1160280A128A110C2818
:08400000FF3FFF3FFF3FFF3FC0
:02400E00713F00
:00000001FF
