:060000000A128A11FC2F18
:100F5000F000700883120313930008008312031338
:100F60001410941014119411941614128316031370
:100F70001413941387120716871108000A128A1196
:100F8000AE270A128A11F401073083160313860074
:100F90008801831203138801061CCF2FD02FE22F64
:100FA0000130F1007108F4070230F3004530F2001F
:100FB000A930F100F10BDA2FF20BDA2FF30BDA2F55
:100FC000E12FF42F861CE52FE62FE92F0130F402E4
:100FD000D42F061DEC2FED2FF42F74080A128A115E
:100FE000A8270A128A11D42F7408831203138800C9
:100FF000CC2F0A128A11002883010A128A11BE2FEF
:08400000FF3FFF3FFF3FFF3FC0
:02400E00713F00
:00000001FF
