:060000000A128A11FC2F18
:100EBA00F0007008831203178D00831603178C1332
:100ECA000C14831203170C080800F1008316031789
:100EDA008C18702F712F6B2F7108831203178D00D6
:100EEA0070088C00831603178C130C158B1355305E
:100EFA008D00AA308D008C148B170C118C100800F1
:100F0A000F308316031386008801831203138801A6
:100F1A00F60183120313861C932F942FAC2F0330F0
:100F2A00F2007208F00076080A128A116A270A1279
:100F3A008A110130F2007208F6078230F300DD30C0
:100F4A00F200F20BA62FF30BA62FAB2FCA2F061D0A
:100F5A00AF2FB02FBB2F0530F2007208F0007608D1
:100F6A000A128A116A270A128A119E2F861DBE2F1B
:100F7A00BF2FCA2F0730F2007208F00076080A1253
:100F8A008A116A270A128A119E2F03307606031DD8
:100F9A00CF2FD02FD12FF60183120313061CD62F81
:100FAA00D72F8E2FF50175080A128A115D270A12AA
:100FBA008A118312031388000630F4001330F300F9
:100FCA00AD30F200F20BE72FF30BE72FF40BE72F0C
:100FDA00EE2F0130F2007208F50703307502031C88
:100FEA00F72FF82FD82F8E2F0A128A110028830183
:060FFA000A128A11852F86
:08400000FF3FFF3FFF3FFF3FC0
:02400E00F93F78
:00000001FF
