:060000000A128A110C280F
:10000800FE00030EF1000A08F2000A128A113128D4
:100018000A128A110F28F30183010A128A1114287F
:100028008316031307128312031307128E018F011D
:100038001012901290101014C33096005030950092
:100048001714971417119715831603130C150B170C
:100058008B172D280A128A110C28831203130C1DE2
:100068003628372845280130F0007008F3070A3091
:100078007306031D40284128442810308706F301E1
:100088000C1172088A00710E8300FE0E7E0E0900A4
:08400000FF3FFF3FFF3FFF3FC0
:02400E00713F00
:00000001FF
