:060000000A128A11FC2F18
:100EF600F501831603138601831203138601F3019A
:100F06000130F000750A892F0310F00DFF3E031D16
:100F1600872F70088312031386000130F0007008D3
:100F2600F5074130F100EE30F000F00B982FF10B91
:100F3600982F000004307506031DA22FA32FA42F9F
:100F4600F5010130F0007008F30731307302031C1D
:100F5600AD2FAE2F832F0630F2001330F100AD30E7
:100F6600F000F00BB42FF10BB42FF20BB42FBB2F04
:100F7600F401F601760AF0000830F1000030F200C4
:100F8600C72F720DF20CF10CF00BC42F71088312EF
:100F9600031386000130F0007008F6074130F100B7
:100FA600EE30F000F00BD52FF10BD52F00000430FA
:100FB6007606031DDF2FE02FE12FF6010130F0004A
:100FC6007008F40731307402031CEA2FEB2FBD2F93
:100FD6000630F2001330F100AD30F000F00BF12FC7
:100FE600F10BF12FF20BF12FF82F822F0A128A1133
:0A0FF600002883010A128A117B2FE4
:08400000FF3FFF3FFF3FFF3FC0
:02400E00713F00
:00000001FF
