:060000000A128A11FC2F18
:100EDE004130831203139F008030831603139F004B
:100EEE0008008312031397151715831603130711A2
:100EFE00FF30920083120313121492101215080081
:100F0E000430760200300319750203188F2F902FCC
:100F1E00A72F7518932F972F8312031317169A2F37
:100F2E0083120313171297127608F8007508F7004C
:100F3E000310F80CF70C0310F80CF70C770895005B
:100F4E0008000A128A1178270A128A110A128A11C7
:100F5E006F270A128A1100300A128A11CC270A1240
:100F6E008A117108F6007008F5000A128A11872797
:100F7E000A128A11C730F900C42FF90BC32FC72FDD
:100F8E00C82FB22F0A128A110028F40008307402FA
:100F9E00031CD22FD32FD62FF001F101FB2F0130DE
:100FAE00F2007208831203139F057408F2000230D8
:100FBE000310F20DFF3E031DDF2F0310720DF30021
:100FCE0073089F040930F200F20BEB2FEE2F831201
:100FDE0003131F151F19F42FF52FF12F1E08F10003
:100FEE00831603131E08F000080083010A128A11EB
:020FFE00A82F1A
:08400000FF3FFF3FFF3FFF3FC0
:02400E00713F00
:00000001FF
