:060000000A128A110C280F
:10000800FE00030EF1000A08F2000A128A114428C1
:100018000A128A110F28F40183010A128A11322860
:100028008316031318151930990018128312031335
:10003800981783160313071787178C160B178B1738
:100048008312031318168C1E2A282B2830288C128A
:100058001A08F3007308F4007408080083160313E1
:1000680086018312031386010A128A1114200A12C8
:100078008A1183120313860038280A128A110C2861
:10008800831203138C1E49284A284E281A08F000A8
:100098007008F40072088A00710E8300FE0E7E0E4E
:0200A80009004D
:08400000FF3FFF3FFF3FFF3FC0
:02400E00713F00
:00000001FF
