:060000000A128A110C280F
:10000800FE00030EF1000A08F2000A128A111428F1
:100018000A128A110F28F30183010A128A11332860
:10002800831203130C1C19281A282C283C308F0023
:10003800B0308E000130F0007008F30714307306FA
:10004800031D272828282B2801308606F3010C10C9
:1000580072088A00710E8300FE0E7E0E0900831658
:1000680003130610831203130610831603130C14CC
:100078000B178B17831203138E018F013C308F00EF
:10008800B0308E0090101012901210144A280A12E4
:040098008A110C2895
:08400000FF3FFF3FFF3FFF3FC0
:02400E00713F00
:00000001FF
