:060000000A128A110C280F
:10000800FE00030EF1000A08F2000A128A111428F1
:100018000A128A110F28F30183010A128A112F2864
:10002800831203130C1C19281A2828280130F00001
:100038007008F3070F307306031D23282428272888
:1000480001308606F3010C1072088A00710E8300D5
:10005800FE0E7E0E09008316031306108312031387
:100068000610831603130C140B178B178312031334
:100078008E018F01901010129012101442280A124B
:040088008A110C28A5
:08400000FF3FFF3FFF3FFF3FC0
:02400E00713F00
:00000001FF
