:060000000A128A11EE2F26
:100F30007E088A007F0882000A128A1198270A1206
:100F40008A118000840A04087D0603190034FF0A10
:100F50000319FE0A9C2F80349834B034C634DA3436
:100F6000EA34F534FD34FF34FD34F534EA34DA3450
:100F7000C634B0349834803467344F34393425342F
:100F800015340A340234003402340A34153425345A
:100F900039344F3467348034831603138601831247
:100FA00003138601F1017108203E840083130008B9
:100FB0008312031386000130F0007008F107D0306F
:100FC000F000F00BE12F21307106031DE82FE92F0F
:100FD000D32FF101D32F0A128A1100288313413035
:100FE000FD000730FE00AB30FF00203084000A1205
:100FF0008A119C270A128A1183010A128A11CC2FA6
:08400000FF3FFF3FFF3FFF3FC0
:02400E00713F00
:00000001FF
